:100000000C94C5000C94ED000C94ED000C94ED00E4
:100010000C94ED000C94ED000C94ED000C94ED00AC
:100020000C94ED000C94ED000C9407050C948505E0
:100030000C94ED000C94ED000C94ED000C94ED008C
:100040000C94ED000C94ED000C94ED000C94ED007C
:100050000C94ED000C94ED000C94ED000C94BD0498
:100060000C94ED000C94ED000C94ED000C94ED005C
:100070000C94ED000C94ED000C94ED000C94ED004C
:100080000C94ED000C94ED000C94ED000C94ED003C
:100090000C94ED000C94ED000C94ED000C94ED002C
:1000A0000C94ED000C94ED000C94ED00080B000294
:1000B0000202000009040000010202000005240001
:1000C0001001052401010104240206052406000193
:1000D0000705810310004009040100020A00000026
:1000E00007050202400000070583024000000403E8
:1000F000090412010002EF02014041233680000191
:100100000102030141726475696E6F204C4C43001B
:1001100041726475696E6F204C656F6E6172646FB9
:100120000000000000250028002B002E00310000F8
:10013000000000240027002A002D003000040404E1
:10014000040403040502020202040302020202067E
:10015000060606060604040202020404040802015C
:100160001040804010204080408008020401804000
:1001700020100201108010204040200706050401D5
:1001800000080A0B0C0D0900FF0711241FBECFEF5A
:10019000DAE0DEBFCDBF11E0A0E0B1E0E8E3F3E1DB
:1001A00002C005900D92A036B107D9F721E0A0E674
:1001B000B1E001C01D92A13FB207E1F710E0C5EC2C
:1001C000D0E004C02197FE010E949409C43CD107ED
:1001D000C9F70E944D080C949A090C940000FC0188
:1001E00080918401882311F13FB7F89482E08093D5
:1001F000E9002091F200822F90E01816190614F4FD
:1002000081E090E0882339F0289844E64093830108
:100210004091F1004083222339F02091F200211116
:1002200003C02BE62093E8003FBF08958FEF9FEFB8
:100230000895CF93DF931F92CDB7DEB76983DC01BA
:10024000ED91FC910280F381E02D41E050E0BE0190
:100250006F5F7F4F09950F90DF91CF910895CF93F6
:10026000DF931F92CDB7DEB7FC018485958597FD9E
:1002700008C02FEF3FEF358724870F90DF91CF9194
:100280000895CE0101960E94EF00019719F489812B
:1002900090E0F3CF8FEF9FEFF0CF0F931F93CF93AB
:1002A000DF931F92CDB7DEB78C01FC018485958565
:1002B00097FF0BC0CE0101960E94EF00019771F4E9
:1002C000898190E0F80195878487F8018485958578
:1002D0000F90DF91CF911F910F9108958FEF9FEFB6
:1002E000F1CFFC018485958597FD0BC09FB7F894ED
:1002F00082E08093E9008091F2009FBF90E0019638
:1003000008959FB7F89482E08093E9008091F2000D
:100310009FBF90E008953FB7F89480917F0190913E
:100320008001A0918101B091820126B5A89B05C0F2
:100330002F3F19F00196A11DB11D3FBFBA2FA92F64
:10034000982F8827BC01CD01620F711D811D911D61
:1003500042E0660F771F881F991F4A95D1F70895CD
:10036000CF92DF92EF92FF920E948B016B017C0192
:100370000E948B016C197D098E099F09683E7340AC
:1003800081059105A8F3FF90EF90DF90CF9008953D
:100390008093E9008091F200882319F08AE380932A
:1003A000E800089583E00C94C80140916E015091DB
:1003B0006F0120916C0130916D0142175307B4F425
:1003C0009091E8009570E1F39091E80092FD19C0DA
:1003D0008093F10080916E0190916F0101968F736F
:1003E0009927892B19F48EEF8093E80080916E0194
:1003F00090916F01019690936F0180936E0181E05F
:10040000089580E00895EF92FF920F931F93CF938A
:10041000DF93F82E192FE62E042F81E0860F880F28
:100420000E94D50183E00E94D501CF2DD12FEC0E83
:10043000FD2EF11CCE15DF05B9F007FF13C0FE013C
:1004400084910E94D501182F80E00E94D50181235C
:1004500021968111EFCFDF91CF911F910F91FF90E6
:10046000EF9008958881EDCF81E0F5CFDF92EF9294
:10047000FF920F931F93CF93DF93D82E8A01EB0146
:100480007B01E40EF51ECE15DF0559F0D7FE12C034
:10049000FE0184910E94D50121968111F4CF0FEFC6
:1004A0001FEFC801DF91CF911F910F91FF90EF9047
:1004B000DF9008958881EECF2FB7F89487708093EE
:1004C000E9009091E800892F807295FF04C0909117
:1004D000F20080E4891B2FBF089583E00E945C0234
:1004E00090E008957F928F929F92AF92BF92CF92A9
:1004F000DF92EF92FF920F931F93CF93DF93C82E5B
:100500008B017A0180918401811110C08FEF9FEFE0
:10051000DF91CF911F910F91FF90EF90DF90CF90DF
:10052000BF90AF909F908F907F90089580917201BF
:1005300080FF05C08091E00082608093E000CE2DB6
:10054000DF2DD12C8AEFB82E8C2D8770982E8C2D14
:100550008072882E8C2D8074782E9AE3A92E209795
:1005600019F4DD2009F44EC08C2D0E945C0281112B
:1005700006C0BA94BB2051F20E94B001F0CF8C1794
:100580001D0611F00CF08C2F9FB7F8949092E900A3
:100590002091E80025FD02C09FBFE1CF282F30E069
:1005A000C21BD30B882029F08150A0F01092F100DB
:1005B000FBCFF801C7FC0AC0815050F04191409335
:1005C000F100FACF44914093F10031968150D0F779
:1005D000020F131FDD2021F0A092E800D12CDCCF08
:1005E0008091E80085FD07C0A092E800DD24D39447
:1005F000209791F2F3CF209779F6772069F2A092B5
:10060000E800CACF5D9884E680937101C70180CF6E
:10061000CF93DF93EC0180911201882331F083E0C6
:100620000E9472021816190634F081E090E09B8354
:100630008A8380E090E0DF91CF910895615030F09F
:100640002091F100FC0120830196F8CF289884E6E0
:100650008093830108958091640181110DC082E02F
:100660008093600184E08093610110926301109295
:10067000620181E08093640180E691E008950F9328
:100680001F93CF93DF931F92CDB7DEB782E08983AC
:1006900042E450E06CEA70E080E80E9436020E947A
:1006A0002B03DC0112960D911C910115110589F0A7
:1006B000D801ED91FC910280F381E02DBE016F5FC6
:1006C0007F4FC801099597FD04C0F8010085118589
:1006D000ECCF89810F90DF91CF911F910F910895F9
:1006E00090E080E0089580E008950F931F93CF93EA
:1006F000DF93CDB7DEB7C456D1090FB6F894DEBF8D
:100700000FBECDBFFC01DB019C919E5F9C939E01BF
:10071000295F3F4F8AE5D9011D928A95E9F788E064
:1007200089838BE08A8322E02C8391E09D839E83E2
:1007300039E0398764E06A879E879F873A8B44E275
:100740004B8B9C8BA0E0B1E0BE8BAD8B09E010E041
:10075000188F0F8B998F3B8F6C8F2F8F98A353E03F
:1007600059A387E08CA34DA39EA3B8A7AFA3A1E490
:10077000B0E0BAA7A9A786E08BA74CA72DA79EA794
:100780009FA789AB4AAB2BAB2CAB2DAB3FAB48AF94
:1007900059AF9AAF5BAF9CAF2DAF9EAF21963FAFE5
:1007A000219722964FAF229723965FAF23972496E7
:1007B0002FAF249725966FAF259726969FAF269744
:1007C00027969FAF279728969FAF28972A963FAFE7
:1007D0002A9745E02B964FAF2B972D962FAF2D974D
:1007E00060E470E02F967FAF6EAF2F9763964FAFA8
:1007F000639785E264968FAF649765969FAF659720
:1008000066969FAF669767969FAF679768963FAF6C
:10081000689769964FAF69976B962FAF6B976D96F8
:100820007FAF6EAF6D97A1964FAFA197A2968FAF96
:10083000A297A3969FAFA397A4969FAFA497A596C0
:100840005FAFA59792819B839B879F5F9A8F9D8FB8
:1008500083812C968FAF2C978F5F80686A968FAFBD
:100860006A9744E650E0BE016F5F7F4F80E00E94D0
:100870003602CC59DF4F0FB6F894DEBF0FBECDBFA6
:10088000DF91CF911F910F910895CF93DF931F9226
:10089000CDB7DEB7898341E050E0BE016F5F7F4F87
:1008A00080E00E94360221E0019709F020E0822FCB
:1008B0000F90DF91CF910895EF92FF920F931F93C6
:1008C000CF93DF937C018B01CB010196880F0E94AF
:1008D000450483E00E944504E701E00EF11EEC169A
:1008E000FD0681F089910E944504182F80E00E9446
:1008F00045048123A1F7DF91CF911F910F91FF90C4
:10090000EF90089581E0F7CFFC0182818F5BFB01BE
:10091000808381E00895DB0113962C911397233097
:10092000F9F4FC0112968C91813081F482859385D3
:100930000097B1F0FC0101900020E9F73197BF0169
:10094000681B790B0E945C0490E00895823019F4D2
:1009500084859585EDCF833019F486859785E8CF1A
:1009600090E080E0089584E0E3E4F1E0DB010190B1
:100970000D928A95E1F784E008951F920F920FB6C9
:100980000F9211242F933F938F939F93AF93BF9315
:1009900080917B0190917C01A0917D01B0917E01BD
:1009A00030917A0123E0230F2D3758F50196A11DD0
:1009B000B11D20937A0180937B0190937C01A093D9
:1009C0007D01B0937E0180917F0190918001A09183
:1009D0008101B09182010196A11DB11D80937F011B
:1009E00090938001A0938101B0938201BF91AF9158
:1009F0009F918F913F912F910F900FBE0F901F905D
:100A0000189526E8230F0296A11DB11DD2CF1F9283
:100A10000F920FB60F9211242F933F934F935F9332
:100A20006F937F938F939F93AF93BF93CF93EF93E6
:100A3000FF93C091E1008091E100837F8093E1000A
:100A4000C3FF0FC01092E90081E08093EB00109289
:100A5000EC0082E38093ED001092840188E08093A3
:100A6000F000C2FF1BC083E00E94C80180917101A9
:100A7000882341F08091710181508093710181112F
:100A800001C05D9A80918301882341F080918301A8
:100A9000815080938301811101C0289AC4FF23C033
:100AA0008091E2008E7E81608093E2008091E1007F
:100AB0008F7E8093E100809172018E7E80618093B1
:100AC0007201FF91EF91CF91BF91AF919F918F9163
:100AD0007F916F915F914F913F912F910F900FBE3A
:100AE0000F901F901895C0FFECCF8091E2008E7E92
:100AF00080618093E2008091E1008E7E8093E1002E
:100B0000809172018E7E8160DACF1F920F920FB6B4
:100B10000F921124CF92DF92EF92FF920F931F93C7
:100B20002F933F934F935F936F937F938F939F93F5
:100B3000AF93BF93EF93FF93CF93DF93CDB7DEB720
:100B40006C97DEBFCDBF1092E9008091E80083FF73
:100B500025C068E0CE0145960E941E0382EF809377
:100B6000E8008D8987FF39C09091E80090FFFCCFA5
:100B7000982F907609F034C19E894F89588D2F891E
:100B8000F88C911131C0803861F5809173018093A8
:100B9000F1001092F1008EEF8093E8006C960FB692
:100BA000F894DEBF0FBECDBFDF91CF91FF91EF91E3
:100BB000BF91AF919F918F917F916F915F914F9175
:100BC0003F912F911F910F91FF90EF90DF90CF9069
:100BD0000F900FBE0F901F9018959EEF9093E80016
:100BE000C7CF1092F100D5CF913059F48111D3CFF6
:100BF0004130510581F6809173018D7F809373019F
:100C0000CACF933049F48111C6CF4130510519F64E
:100C1000809173018260F2CF953041F48091E800B9
:100C200080FFFCCF20682093E300B5CF963009F019
:100C3000A9C00B8D1C8D22E01092E90010926F016B
:100C400010926E01F2122EC010926D0110926C0182
:100C50000E943F031F8299E09983FA8291E09E836C
:100C600090EA98879AEF998720916E0130916F01F1
:100C7000275F3F4F3C832B838D831092E9001092B6
:100C80006F0110926E0110936D0100936C0149E0A9
:100C900050E0BE016F5F7F4F80E00E9436020E94ED
:100CA0003F0379CF10936D0100936C010E942B03D9
:100CB000DC0112960D911C910115110509F451C129
:100CC000D801ED91FC910480F581E02DBE016B5EB1
:100CD0007F4FC8010995009709F03EC1F8010085D2
:100CE0001185EACFF3E0FF120EC08F89882309F443
:100CF00040C0823061F440E860E180E191E00E9410
:100D00000302811148CF81E28093EB0047CF81300D
:100D100029F440E86BE084E091E0F1CF833099F76B
:100D20000E942B03DC011296ED90FC908E010F5F68
:100D30001F4F6801E114F10479F0D701ED91FC91A6
:100D40000680F781E02DB801C7010995080F111D34
:100D5000F701E084F184EECFD8011C92F6010190F6
:100D60000020E9F73197BF016C197D0940E0C60109
:100D7000C6CF6EEE70E0FB01449150E080E80E9427
:100D8000360209CF973009F4BECF983021F481E0C4
:100D90008093F10000CF993009F0FDCE837009F007
:100DA000B2CFE1E0F1E081E031E096E3219122234E
:100DB00071F08093E9003093EB00DF0111972C91E3
:100DC0002093EC009093ED008F5F873079F78EE7EA
:100DD0008093EA001092EA008F8980938401DBCE31
:100DE0008B8D9C8D1092E90010926F0110926E0114
:100DF00090936D0180936C01898D811192C08E89D1
:100E00009D89913A49F4813209F07DCF47E050E065
:100E10006BE071E080E0B3CF913209F074CF8332A0
:100E200069F48F89988DB0E0A0E0809307019093DA
:100E30000801A0930901B0930A01ADCE803269F494
:100E40008091E80082FFFCCF67E08BE091E00E9498
:100E50001E038BEF8093E8009ECE823209F09BCE7A
:100E60008F8980931201EEEFFFE7859194918B3F7C
:100E70009C4D51F1E0E0F8E080910B0190910C0164
:100E8000A0910D01B0910E01803B9440A105B105E8
:100E9000F1F48091120180FD1AC0EE3F8AE0F8075C
:100EA00089F587E797E7918380838091600080933D
:100EB000700188E19BE00FB6F894A89580936000DC
:100EC0000FBE9093600067CEEEEFFAE0D5CF808141
:100ED00091818737974709F05ECEA8958091600091
:100EE0008861809360008091700180936000EE3F84
:100EF0002AE0F20789F08091FE0A9091FF0A91831F
:100F0000808349CE808191818737980751F29093F1
:100F1000FF0A8093FE0AC5CF1092FF0A1092FE0AC4
:100F20003ACE0E942B03DC0112960D911C91011503
:100F3000110509F4E8CED801ED91FC910190F08102
:100F4000E02DBE016B5E7F4FC8010995811123CE54
:100F5000F80100851185EBCF181619060CF41BCE8D
:100F6000D2CEF1E0FF12BECE62EF70E004CFCF939D
:100F7000DF93FC01DB01818114963C911497682F6B
:100F8000630F7727771F683071059CF5C281D38185
:100F9000209739F5B383A283908112969C93129780
:100FA00013968C93139715968C911597890F8083C0
:100FB00090E080E0831708F52181C22FD0E0BE01C8
:100FC00060507F4F16964D915C911797480F591FAF
:100FD000EA014881EB0148832F5F21830196EACF24
:100FE000EA014885598541155105D1F7B987A88788
:100FF000D3CF80E0DF91CF91089581E0FBCFE5E88A
:10100000F1E01382128288EE93E0A0E0B0E08483E6
:101010009583A683B7838DE191E0918380838FEFE1
:101020009FEF95878487E5EDF1E082E084838583F7
:101030008FED91E097838683118610868FE291E091
:101040009183808380E8828781E883870E942B03D5
:1010500065ED71E00E94B707E1EEF1E081E0848385
:10106000858381EF91E097838683118610868BE3D9
:1010700091E09183808388E491E09387828784E57F
:1010800091E0958784878AE591E0978786870E941B
:101090002B0361EE71E00C94B707CF93DF9300D080
:1010A00000D0CDB7DEB7789484B5826084BD84B5B6
:1010B000816084BD85B5826085BD85B5816085BD53
:1010C00080916E00816080936E001092810080910B
:1010D0008100826080938100809181008160809393
:1010E00081008091800081608093800080919100D8
:1010F0008260809391008091910081608093910043
:10110000809190008160809390008091C100846004
:101110008093C1008091C10082608093C100809162
:10112000C10081608093C1008091C3008160809381
:10113000C3008091C00082608093C0008091C20093
:1011400081608093C20080917A00846080937A00ED
:1011500080917A00826080937A0080917A00816029
:1011600080937A0080917A00806880937A00109250
:10117000840110927301109272018091D7008160F6
:101180008093D70080EA8093D80089B5806189BDBB
:1011900089B5826089BD09B400FEFDCF0E94B0010F
:1011A0008091D8008F7C80618093D8008091E0008E
:1011B000807F8093E0008091E1008E7E8093E1004B
:1011C0008DE08093E200559A209AA6E1B1E08D91DE
:1011D00090E0FC01E45AFE4F2491835C9E4FFC0199
:1011E00084918823C9F090E0880F991FFC01E15D8C
:1011F000FE4F45915491FC01EF5DFE4F6591749156
:101200009FB7F894FA018081209582238083FB01A7
:101210008081822380839FBFF1E0A931BF07B9F6A7
:1012200060E0A62E60E0B62E7BE0772EE0EB6E2E1F
:1012300043E1C42E41E0D42E04E711E056E1E52E4F
:1012400051E0F52ED701ED917D01E23108F0E25138
:10125000F0E0E558FE4FE49190917B008E2F880FCF
:10126000880F80729F7D892B80937B00E770E064FC
:10127000E0937C0080917A00806480937A00809172
:101280007A0086FDFCCF8090780090907900B5E0E0
:101290008B16910408F440C0EBEF8E16E3E09E0637
:1012A000F0F5D8018D919C918815990519F1F401FB
:1012B000E81BF90B3697F0F0D6018C9179826A829F
:1012C0008B83C40123E0969587952A95E1F78C835B
:1012D0008091D80144E050E0BE016F5F7F4F8F5F87
:1012E0000E9472028091D8018F5F0E94C801F801AC
:1012F00091828082FFEFCF1ADF0A0E5F1F4F29E134
:10130000E21621E0F20609F09DCFA114B10409F420
:101310008FCF0E9400008CCF912C812CC2CF8824CB
:101320008A9433E0932EBDCFEE0FFF1F0590F4910A
:08133000E02D0994F894FFCFB1
:1013380000C18081000000FFFFFFFF00E100000006
:101348000000000102031C1B1A000000001901081C
:10135800036D02D20171012F014D010000000073DD
:101368000375037003B30400000000730370038B5C
:101378000484044D494449004E656F4172636843D3
:1013880061743700582E552E4C0030303031000033
:00000001FF
