:100000000C94DD000C9405010C9405010C94050181
:100010000C9405010C9405010C9405010C94050148
:100020000C9405010C9405010C945B0E0C94D90EF4
:100030000C9405010C9405010C9405010C94050128
:100040000C9405010C9405010C9405010C94050118
:100050000C9405010C9405010C9405010C94110EEF
:100060000C9405010C9405010C9405010C940501F8
:100070000C9405010C9405010C9405010C940501E8
:100080000C9405010C9405010C9405010C940501D8
:100090000C9405010C9405010C9405010C940501C8
:1000A0000C9405010C9405010C940501CDCCCC3DBC
:1000B0000AD7233C17B7D13877CC2B329595E62455
:1000C0001FB14F0A000020410000C84200401C46FA
:1000D00020BCBE4CCA1B0E5AAEC59D74080B000254
:1000E00002020000090400000102020000052400D1
:1000F0001001052401010104240206052406000163
:100100000705810310004009040100020A000000F5
:1001100007050202400000070583024000000403B7
:10012000090412010002EF02014041233680000160
:100130000102030141726475696E6F204C4C4300EB
:1001400041726475696E6F204C656F6E6172646F89
:100150000000000000250028002B002E00310000C8
:10016000000000240027002A002D003000040404B1
:10017000040403040502020202040302020202064E
:10018000060606060604040202020404040802012C
:1001900010408040102040804080080204018040D0
:1001A00020100201108010204040200706050401A5
:1001B00000080A0B0C0D0900531111241FBECFEFCC
:1001C000DAE0DEBFCDBF12E0A0E0B1E0EAEEF7E397
:1001D00002C005900D92A032B107D9F722E0A0E24B
:1001E000B2E001C01D92A23BB207E1F710E0CDEDF5
:1001F000D0E004C02197FE010E945A17CC3DD107E0
:10020000C9F70E94A1110C94F31B0C940000CF932A
:10021000DF93EC0188819981DC01ED91FC910190E3
:10022000F081E02D64E270E00995009741F02FE144
:10023000FC01238321E02283DF91CF91089521E007
:100240002A83FACFFC0180913D02882311F13FB748
:10025000F89482E08093E9002091F200822F90E0F0
:100260001816190614F481E090E0882339F02898D4
:1002700044E640933C024091F1004083222339F050
:100280002091F200211103C02BE62093E8003FBF2C
:1002900008958FEF9FEF08953FB7F894809138024B
:1002A00090913902A0913A02B0913B0226B5A89BE9
:1002B00005C02F3F19F00196A11DB11D3FBFBA2FF8
:1002C000A92F982F8827BC01CD01620F711D811DB8
:1002D000911D42E0660F771F881F991F4A95D1F73D
:1002E0000895CF92DF92EF92FF920E944C016B0132
:1002F0007C010E944C016C197D098E099F09683EA2
:10030000734081059105A8F3FF90EF90DF90CF90A7
:1003100008958093E9008091F200882319F08AE320
:100320008093E800089540912E0250912F02209171
:100330002C0230912D0242175307B4F49091E8003B
:100340009570E1F39091E80092FD19C08093F1005F
:1003500080912E0290912F0201968F739927892BFD
:1003600019F48EEF8093E80080912E0290912F0275
:10037000019690932F0280932E0281E0089580E0F1
:100380000895EF92FF920F931F93CF93DF93F82E70
:10039000192FE62E042F81E0860F880F0E9493010B
:1003A00083E00E949301CF2DD12FEC0EFD2EF11C86
:1003B000CE15DF05B9F007FF13C0FE0184910E943E
:1003C0009301182F80E00E949301812321968111CF
:1003D000EFCFDF91CF911F910F91FF90EF90089594
:1003E0008881EDCF81E0F5CFDF92EF92FF920F93FE
:1003F0001F93CF93DF93D82E8A01EB017B01E40E8C
:10040000F51ECE15DF0559F0D7FE12C0FE0184910E
:100410000E94930121968111F4CF0FEF1FEFC801C5
:10042000DF91CF911F910F91FF90EF90DF90089592
:100430008881EECF2FB7F89487708093E900909170
:10044000E800892F807295FF04C09091F20080E44B
:10045000891B2FBF08957F928F929F92AF92BF9278
:10046000CF92DF92EF92FF920F931F93CF93DF9380
:10047000C82E8B017A0180913D02811110C08FEF4F
:100480009FEFDF91CF911F910F91FF90EF90DF9041
:10049000CF90BF90AF909F908F907F900895809164
:1004A000320280FF05C08091E00082608093E0000E
:1004B000CE2DDF2DD12C8AEFB82E8C2D8770982E63
:1004C0008C2D8072882E8C2D8074782E9AE3A92E24
:1004D000209719F4DD2009F44EC08C2D0E941A02D9
:1004E000811106C0BA94BB2051F20E947101F0CF75
:1004F0008C171D0611F00CF08C2F9FB7F89490927A
:10050000E9002091E80025FD02C09FBFE1CF282F20
:1005100030E0C21BD30B882029F08150A0F010924C
:10052000F100FBCFF801C7FC0AC0815050F04191A7
:100530004093F100FACF44914093F10031968150FD
:10054000D0F7020F131FDD2021F0A092E800D12C7C
:10055000DCCF8091E80085FD07C0A092E800DD2493
:10056000D394209791F2F3CF209779F6772069F210
:10057000A092E800CACF5D9884E680933102C7015B
:1005800080CF615030F02091F100FC012083019672
:10059000F8CF289884E680933C0208958091240245
:1005A00081110DC082E08093200284E080932102BB
:1005B000109223021092220281E08093240280E2B2
:1005C00092E008950F931F93CF93DF931F92CDB7BF
:1005D000DEB782E0898342E450E06CED70E080E8B1
:1005E0000E94F4010E94CE02DC0112960D911C9132
:1005F0000115110589F0D801ED91FC910280F3817C
:10060000E02DBE016F5F7F4FC801099597FD04C0C3
:10061000F80100851185ECCF89810F90DF91CF9192
:100620001F910F910895CF93DF93EC0180911201F8
:10063000882331F083E00E942B021816190634F04B
:1006400081E090E09B838A8380E090E0DF91CF910E
:100650000895CF93DF931F92CDB7DEB76983DC0196
:10066000ED91FC910280F381E02D41E050E0BE016C
:100670006F5F7F4F09950F90DF91CF91089583E0D1
:100680000C94890183E00E941A0290E00895CF93B0
:10069000DF931F92CDB7DEB7FC018485958597FD6A
:1006A00008C02FEF3FEF358724870F90DF91CF9160
:1006B0000895CE0101960E942201019719F48981C3
:1006C00090E0F3CF8FEF9FEFF0CF2FB7F8948091AA
:1006D0003E0290913F02A0914002B09141022FBF93
:1006E00080934A0290934B02A0934C02B0934D0228
:1006F00082E492E00E94470397FF26C02FB7F89448
:1007000080913E0290913F02A0914002B09141023F
:100710002FBF40914A0250914B0260914C02709160
:100720004D02841B950BA60BB70B409146025091CE
:100730004702609148027091490284179507A60705
:10074000B707B0F28FEF9FEF08950F931F93CF93EA
:10075000DF931F92CDB7DEB78C01FC0184859585B0
:1007600097FF0BC0CE0101960E942201019771F400
:10077000898190E0F80195878487F80184859585C3
:100780000F90DF91CF911F910F9108958FEF9FEF01
:10079000F1CFFC018485958597FD0BC09FB7F89438
:1007A00082E08093E9008091F2009FBF90E0019683
:1007B00008959FB7F89482E08093E9008091F20059
:1007C0009FBF90E0089590E080E0089580E0089554
:1007D0000F931F93CF93DF93CDB7DEB7C456D109E4
:1007E0000FB6F894DEBF0FBECDBFFC01DB019C91BC
:1007F0009E5F9C939E01295F3F4F8AE5D9011D9220
:100800008A95E9F788E089838BE08A8322E02C834C
:1008100091E09D839E8339E0398764E06A879E87F3
:100820009F873A8B44E24B8B9C8BA0E0B1E0BE8B60
:10083000AD8B09E010E0188F0F8B998F3B8F6C8F79
:100840002F8F98A353E059A387E08CA34DA39EA3B9
:10085000B8A7AFA3A1E4B0E0BAA7A9A786E08BA789
:100860004CA72DA79EA79FA789AB4AAB2BAB2CAB60
:100870002DAB3FAB48AF59AF9AAF5BAF9CAF2DAF3D
:100880009EAF21963FAF219722964FAF2297239696
:100890005FAF239724962FAF249725966FAF2597A8
:1008A00026969FAF269727969FAF279728969FAFAC
:1008B00028972A963FAF2A9745E02B964FAF2B9764
:1008C0002D962FAF2D9760E470E02F967FAF6EAF1F
:1008D0002F9763964FAF639785E264968FAF6497C7
:1008E00065969FAF659766969FAF669767969FAF31
:1008F000679768963FAF689769964FAF69976B9611
:100900002FAF6B976D967FAF6EAF6D97A1964FAF80
:10091000A197A2968FAFA297A3969FAFA397A496F5
:100920009FAFA497A5965FAFA59792819B839B8766
:100930009F5F9A8F9D8F83812C968FAF2C978F5FAF
:1009400080686A968FAF6A9744E650E0BE016F5F99
:100950007F4F80E00E94F401CC59DF4F0FB6F8942E
:10096000DEBF0FBECDBFDF91CF911F910F910895D4
:10097000CF93DF931F92CDB7DEB7898341E050E07C
:10098000BE016F5F7F4F80E00E94F40121E001977C
:1009900009F020E0822F0F90DF91CF910895EF9220
:1009A000FF920F931F93CF93DF937C018B01CB01B9
:1009B0000196880F0E94B80483E00E94B804E70102
:1009C000E00EF11EEC16FD0681F089910E94B8043C
:1009D000182F80E00E94B8048123A1F7DF91CF9106
:1009E0001F910F91FF90EF90089581E0F7CFFC01E8
:1009F00082818F5BFB01808381E008956F3FA9F0C6
:100A0000E62FE295EF7044E0E49F90011124DC01B1
:100A1000ED91FC91E20FF31F6F7082819381B6E03C
:100A20006B9F800D911D1124089590E080E0089542
:100A3000982F80336CF08A3324F08F3524F08B3775
:100A400024F481E0089581341CF081E09B350CF0A2
:100A500080E00895FC018485811114C0A781B085D0
:100A6000818592852FEF3FEFA817B90730F4CD01AC
:100A70000196908787832C9130E037FD20E0238713
:100A800081E08487838508951F93CF93DF93EC01E2
:100A9000162F0E942A05811306C01C8681E0DF9173
:100AA000CF911F91089580E0FACF0F931F93CF93BA
:100AB000DF938C01EB018991882369F0C8010E94C2
:100AC0002A05882379F0FE013197908198130DC093
:100AD000F8011486F0CF90E080E0DF91CF911F9174
:100AE0000F91089582E090E0F8CF83E090E0F5CF99
:100AF000CF93DF93EC01CE010E942A058B304CF49A
:100B000089305CF4882359F081E08E8390E080E0A6
:100B10000BC08D3011F08032B9F71C86ECCF8E817E
:100B2000811105C081E090E0DF91CF91089582E0CE
:100B300090E0FACFDC0152969C915297915084E05C
:100B4000989F900111245096ED91FC91E20FF31FB4
:100B5000228133812115310579F041818081481747
:100B600058F481E0840F818386E0489F200D311D79
:100B700011242115310521F460E070E08FEF089514
:100B8000B901892F8295807F840F0895DF92EF92BB
:100B9000FF920F931F93CF93DF93EC017B01D12C36
:100BA000688979898A89D816E0F484E0D89E800122
:100BB0001124060F171FD80112966D917C916115B3
:100BC000710541F0D701ED91FC910280F381E02D98
:100BD000C7010995F8011382128210821182D39401
:100BE000DFCF1A8A8FEF8C8BC617D70761F0D7013A
:100BF000ED91FC910280F381E02DC7010995D98B1D
:100C0000C88B84E08B8BDF91CF911F910F91FF9068
:100C1000EF90DF9008954F925F926F927F928F9244
:100C20009F92AF92BF92CF92DF92EF92FF920F937B
:100C30001F93CF93DF9300D000D01F92CDB7DEB7C4
:100C4000DC012C912B32E1F12D32D9F50196EE2405
:100C5000E394FC01208130ED320F3A3010F02E3257
:100C600091F58C0160E070E0CB01F801219130ED4D
:100C7000832E820E39E0381508F444C06A3949E9F8
:100C80007407840749E1940708F046C0AAE0B0E081
:100C90009B01AC010E94B316912CB12CA12C240114
:100CA0003501409450946094709446165706680637
:100CB000790690F1680D791D8A1D9B1D8F01D5CF96
:100CC0000196E12CC6CF198229813A814B815C8142
:100CD0006D8170E080E090E00F900F900F900F908A
:100CE0000F90DF91CF911F910F91FF90EF90DF90C8
:100CF000CF90BF90AF909F908F907F906F905F90BC
:100D00004F900895211108C0EE2051F16130710516
:100D1000810550E89507A0F0F12CBAE08B2E912CBC
:100D2000A12CB12C6115710530E883079105F8F00D
:100D3000A50194010E94F516CA01B901F394F2CFFE
:100D400022E029839B01AC0188279927DC01821BC3
:100D5000930BA40BB50B8A839B83AC83BD83B4CF69
:100D600023E029836A837B838C839D83ADCFF80145
:100D7000D8012D918D0130ED320F3A3010F4F394FB
:100D8000F6CF2E3201F58F010F5F1F4FF8010F5F75
:100D90001F4F2081A0EDDA2ED20EB9E0BD1598F0DC
:100DA0006C3CECEC7E07ECE08E07910578F7AAE04E
:100DB000B0E09B01AC010E94B3166D0D711D811D49
:100DC000911DFA94E3CF20812F7D10E000E02534BF
:100DD00009F050C021812D32B1F53296CC24C39454
:100DE000DF0110E000E02F2D0F2C000C330B5AE038
:100DF000B52EFD01DD9040ED4D0D4A30B0F5B09EB1
:100E0000A001B19E500D11240D2DDD0C110B0053CE
:100E10001109040F151FA801420F531F4732510536
:100E200044F3CC20B9F080E090E0A0E0B0E8E1101D
:100E300003C080E090E0DC0121E029838A839B836A
:100E4000AC83BD8341CF2B3219F03196C12CC8CF72
:100E50003296FCCF80E090E0A0E8BFEFE110ECCF4D
:100E600080E090E0A0E8BFE7E7CFCC2019F0119533
:100E7000019511092081211126CF0F0D111DF7FCBD
:100E80001A950E945F1534ECC32E30E0D32E101655
:100E900011063CF01195019511094CEAC42E40E071
:100EA000D42EF12C0115110591F000FF0CC024E0A7
:100EB000F29EF0011124EC0DFD1D25913591459117
:100EC00054910E94C01515950795F394EBCFE1104E
:100ED000905821E029836A837B838C839D83F4CEA1
:100EE0001F93CF93DF93EC01CB011B81612F4596BC
:100EF0000E94FE04998388831A83009719F0FC01ED
:100F000085818B83DF91CF911F910895DB01ED9156
:100F1000FC9111970280F381E02DBC01CD01099471
:100F2000AF92BF92CF92DF92EF92FF920F931F93F7
:100F3000CF93DF93EC018B018C8180FF24C0A881CB
:100F4000B981FB018381948130E020E00097D9F0E2
:100F5000A817B907D1F5F8016081718112968C91BB
:100F60001297815012968C93129781110CC08D911B
:100F70009C9111972115310529F1F9019183808305
:100F8000CD010E9486078C81807631F1209721F176
:100F9000F8805801F5E1AF0EB11C8FEFF816D1F0D3
:100FA0006F2DC5010E94FE046C01FC01E580B801B3
:100FB0000E949007F801818DF6018083F801F18E7F
:100FC000FE2CEBCF94838383DBCF9C01FC018081DB
:100FD0009181BCCFF882F9821C82DF91CF911F9161
:100FE0000F91FF90EF90DF90CF90BF90AF9008955A
:100FF0000F931F93CF93DF93EC01088119818B81AD
:101000009C81009749F0FC01208131813C832B8336
:10101000B8010E948607F3CF68817981CE010596D9
:10102000DF91CF911F910F910C94C605EF92FF9223
:101030000F931F93CF93DF937C018B01EA016F3FE6
:10104000710509F0B0F4E881F9810480F581E02DA3
:10105000AB014B5F5F4FBC01CE010995009749F092
:10106000FC010383DF91CF911F910F91FF90EF90CF
:101070000895E881F9810280F381E02DB701CE0166
:10108000099590E080E0EECFFF920F931F93CF93EE
:10109000DF93EC01F62E8A819B810097C9F06C8169
:1010A0007D81FC0123812617170691F4088119819F
:1010B000F80140815181660F771F6F5F7F4F0E945B
:1010C0001608009719F421E0F80122839B838A8394
:1010D0008A819B81009759F02C813D81A9014F5F46
:1010E0005F4F5D834C83820F931FFC01F482DF917D
:1010F000CF911F910F91FF9008959F92AF92BF9251
:10110000CF92DF92EF92FF920F931F93CF93DF93D3
:1011100000D000D01F92CDB7DEB78C010E942A0507
:10112000D82EF8011486F12CE12C60EFC62EC801F0
:101130000E942A05F8011486D81609F4B3C081115B
:1011400013C082E090E00F900F900F900F900F90DF
:10115000DF91CF911F910F91FF90EF90DF90CF9093
:10116000BF90AF909F9008958C3509F099C0C80149
:101170000E942A05882329F3E5E5F1E0853709F087
:1011800083C0F801148654E0952EB12CA12CC8011F
:101190000E942A058823A9F2813434F480538031D7
:1011A00030F083E090E0CFCF8F7D8753F8CF44E0DD
:1011B000AA0CBB1C4A95E1F7A82AF80114869A9458
:1011C0009110E5CFC501985D8115944020F475011B
:1011D000F3E0FF22ACCFC5019C5D81159440A8F4DB
:1011E00083E0B822B701762F6627770F770F6A2939
:1011F0007B2990E080E001966038710581059105BA
:1012000040F4C8010E94440892CFB50190E080E00C
:10121000F3CF1982262F2F7320682A8326E0969514
:101220008795779567952A95D1F76032710580F497
:10123000606C6B835E01E4E0AE0EB11CF50162915F
:101240005F01662309F473CFC8010E944408F6CFFA
:10125000262F2F7320682B8386E0769567958A95D5
:10126000E1F76031710538F4606E6C835E01F5E082
:10127000AF0EB11CE3CF60686C83CD825E0126E0C7
:10128000A20EB11CDBCF32969081992309F489CF4D
:101290008913F9CF8181882309F483CFF80114865B
:1012A000682FAFCF82819381892B19F484E090E07D
:1012B0004ACF90E080E047CF6F927F928F929F92CB
:1012C000AF92BF92CF92DF92EF92FF920F931F9354
:1012D000CF93DF93DC011296ED91FC911397149656
:1012E0008D919C911597E80FF91F14820D911C9117
:1012F000119714966D917C91159712968D919C91F2
:1013000013974C0124E0820E911CE801EB81FC81D3
:10131000AB015F776401C40ED51E3097C1F0C38165
:10132000C417150681F434017F01D4E0ED0EF11CE1
:101330006C147D04B9F1E301A9903E01E701B99075
:101340007E01AB14A9F30190F081E02DE6CFED0111
:10135000F801408151810E941608FC01892B21F47B
:1013600081E0D80112968C93A881B98113968D9152
:101370009C911497918380831496FC93EE9313971A
:101380001B821A82CF01DF91CF911F910F91FF90A5
:10139000EF90DF90CF90BF90AF909F908F907F9015
:1013A0006F90089582818F5F8283ECCFCF93DF931C
:1013B000FC0101900020E9F73197AF01481B590B60
:1013C000BC0182E492E00E941303EC0142E050E091
:1013D00068E671E082E492E00E9413038C0F9D1F87
:1013E000DF91CF910895DB0113962C911397233051
:1013F000F9F4FC0112968C91813081F482859385F9
:101400000097B1F0FC0101900020E9F73197BF018E
:10141000681B790B0E94CF0490E00895823019F484
:1014200084859585EDCF833019F486859785E8CF3F
:1014300090E080E008959F92AF92BF92CF92DF92AA
:10144000EF92FF920F931F93CF93DF9300D000D0C2
:10145000CDB7DEB78A01452BA1F460E070E08FEFD5
:101460009A2D0F900F900F900F90DF91CF911F91B9
:101470000F91FF90EF90DF90CF90BF90AF909F9033
:1014800008957901B72EC62EFC01D0806D2DC901BB
:1014900045960E94FE042FEF009711F0FC01258174
:1014A0009A838983DB822C83DD24D39499249394BB
:1014B000E981FA81309789F2DD2049F18481843015
:1014C00039F0853059F190E080E0B0E0A0E00FC045
:1014D000A081B18190E080E0109741F0FD01019082
:1014E0000020E9F73197CF018A1B9B0B9F772C2DAA
:1014F0003B2D3F772817390751F4F801800F911FD2
:10150000E817F90799F031912D913217C9F3D924D1
:10151000B701CE0101960E947007CACF0190F081F9
:10152000E02DDF011496838190E0E1CF69817A811B
:101530008B81AC8095CFDF92EF92FF920F931F9338
:10154000CF93DF9300D000D0CDB7DEB7FC0101818F
:101550001281E780F084C8014A96438154816581F5
:101560007681009771F490E080E00F900F900F90DB
:101570000F90DF91CF911F910F91FF90EF90DF902F
:101580000895F801268D203211F090E080E0009758
:1015900051F398010E941B0A272F69837A838B835A
:1015A0009C83862F922F009701F3B801CE010196FC
:1015B0000E947007E981FA813097A9F28481803412
:1015C00091F6D0806D2DC80145960E94FE042FEF44
:1015D000009711F0FC0125819A838983DB822C839B
:1015E00089819A81009709F2E114F10409F4BDCFD1
:1015F000B801CE0101960E947007F1E0EF1AF108E0
:10160000EFCFCB010C94FC170F931F93CF93DF9375
:10161000EC0188819981009759F02A813B81261736
:10162000370730F081E0DF91CF911F910F9108953E
:101630008B016F5F7F4F0E948518009759F0998347
:1016400088831B830A832C813D81232B59F7FC015E
:101650001082E8CF80E0E7CFCB01BA010C94851867
:1016600084E0EBE6F1E0DB0101900D928A95E1F771
:1016700084E00895BF92CF92DF92EF92FF920F9392
:101680001F93CF93DF93EC01198D1F3F81F0612FE2
:1016900045960E94FE04FC018081898F309709F4F1
:1016A00077C014828FEF8583BF01812F76C06C01D4
:1016B00035E0C30ED11CE880F9808F89882341F082
:1016C000C6010E949A05E62FF72F182F309749F789
:1016D0001F89988D191324C0103109F459C0110FB6
:1016E0006D897E89D701ED91FC91B4E01B9FA0012B
:1016F0001124C616D70609F044C00190F081E02DF0
:10170000BA01C7010995009709F442C020E1F6012A
:10171000DC0101900D922A95E1F79E8B8D8B188F3D
:101720000D891E898F8921E0280F2F8BE4E08E9F81
:10173000C0011124080F191F90E1B92E203111F4B6
:101740008FE0B82EF6E0BF9EB0011124D701ED91D5
:10175000FC910190F081E02DC7010995F801938378
:101760008283892B09F4B12CD801BC9211961C926A
:10177000012B71F0C6010E949A05E62FF72F182F52
:101780008DCF0480F581E02DC7010995009729F6DA
:1017900081E08A8360E070E08FEFDF91CF911F914D
:1017A0000F91FF90EF90DF90CF90BF9008952F9210
:1017B0003F924F925F926F927F928F929F92AF92E1
:1017C000BF92CF92DF92EF92FF920F931F93CF932E
:1017D000DF9300D000D01F92CDB7DEB78C017B0124
:1017E000542E0E9478056C01892B09F04AC0C8016B
:1017F0000E942A05863609F4BAC134F5873229F0E9
:101800008B3571F1823209F0B9C1F8011582148269
:1018100082819381892B49F4808191810E94070103
:10182000D80113969C938E931297C8010E947D084D
:101830006C01892B31F5C8010E945C0925E0F70194
:101840002483918380831DC0843709F482C18B3740
:1018500009F47EC08E3609F091C16BE771E082C158
:1018600080E4D70114968C931497E114F10421F0CD
:101870008FEF8C9311968C9351101CC025E0C22ED3
:10188000D12CC6010F900F900F900F900F90DF9109
:10189000CF911F910F91FF90EF90DF90CF90BF906D
:1018A000AF909F908F907F906F905F904F903F9000
:1018B0002F900895F8011486C8010E9478050097BA
:1018C00009F053C16DE5C8010E9444058111D9CFCB
:1018D0005A94D8011D968D909C90C4010E943A0B99
:1018E000782E5B01672B21F494E0C92ED12CC9CF4F
:1018F000F70161816F3F39F1C40145960E94FE04F2
:10190000DC0115967C92F7017182452DB501C80165
:101910000E94D70B009709F028C1C8010E947805E2
:10192000009709F022C16DE5C8010E9444058111AC
:10193000A8CF6CE2C8010E9444058111CACF83E0A0
:10194000C82ED12C9ECFD7018C9311968C93DDCFCE
:1019500080E2F7018483E114F10419F08FEF8083B2
:101960008183552009F48ACFD8011C961C92C801A6
:101970000E947805009709F0F8C06DE7C8010E9441
:10198000440581117ECF5A94F80115821482828118
:101990009381892B49F4808191810E940701D801AC
:1019A00013969C938E931297C8010E942A05873242
:1019B00001F18232F1F0C8010E942A05D82E0E945E
:1019C0001805882309F4BBCFF80114866D2DC801D2
:1019D0000E944408C8010E942A05D82E0E941805BA
:1019E0008111F2CFD80112968D919C91892B41F4EF
:1019F0007BCFC8010E947D086C01892B09F041CF83
:101A0000C8010E9478056C01892B09F03ACF6AE37E
:101A1000C8010E944405882309F491CFD801129689
:101A2000ED91FC91139714968D919C911597E80F69
:101A3000F91F148214966D917C9115977F771D96EE
:101A4000CD90DC901E9712968D919C910496272F35
:101A50002F77B42DB0784B2E422AE89447F89601A0
:101A6000AC01742DC7010E941B0A69837A838B83A2
:101A70009C83672B59F0B601CE0101960E94700736
:101A8000C980DA80C114D10409F05BC0C8010E948A
:101A90005C093C01F80185849684C4010E943A0BDC
:101AA000282E5B01672B09F41FCFC4010E943A0B5B
:101AB000382E962FC92ED72EC114D10409F414CF75
:101AC000E5E0D5011496EC93149711967C926E92F2
:101AD00015963C92D70111966C916F3F71F1C4013C
:101AE00045960E94FE04FC012582D70111963C9286
:101AF000452DB601C8010E94D70B6C01892B09F056
:101B0000C0CEC8010E9478056C01892B09F0B9CEBE
:101B10006DE7C8010E9444058111B3CE6CE2C80193
:101B20000E944405882309F40ACFC8010E94780561
:101B30006C01892B09F428CFA4CEF70120823182D1
:101B4000D7CFD8011D966D917C91C6010E94900758
:101B5000CFCF86E0D70114968C93149781E08C93B5
:101B600060E771E0C8010E9455056C018ACE86E0ED
:101B7000F7018483108265E771E0F4CFC8010E9409
:101B80002A054801FFE08F0E911CB12C782CA92C5E
:101B9000803384F08A3384F43FE3B316A9F0D8018C
:101BA0001C961C92B394F40181934F01C8010E94CA
:101BB0002A05EECF8B3281F393ED980F923060F3CC
:101BC000982F9F7D953441F30B0D111DD8011F9661
:101BD0001C92872D9A2D0E940B063A834B835C83BF
:101BE0006D838A819B81AC81BD812230A9F0233035
:101BF00059F0213009F0A3CE2EE0F7012483808331
:101C00009183A283B3833DCE2AE0F70124838083AE
:101C10009183A283B38335CE2CE0F7CFCB010C9414
:101C200060171F920F920FB60F9211242F933F93BC
:101C30008F939F93AF93BF9380913E0290913F0209
:101C4000A0914002B09141023091370223E0230F6E
:101C50002D3758F50196A11DB11D209337028093B1
:101C60003E0290933F02A0934002B09341028091C4
:101C7000380290913902A0913A02B0913B0201964C
:101C8000A11DB11D8093380290933902A0933A02AE
:101C9000B0933B02BF91AF919F918F913F912F9154
:101CA0000F900FBE0F901F90189526E8230F0296F5
:101CB000A11DB11DD2CF1F920F920FB60F9211240A
:101CC0002F933F934F935F936F937F938F939F9344
:101CD000AF93BF93CF93EF93FF93C091E1008091B7
:101CE000E100837F8093E100C3FF0FC01092E90001
:101CF00081E08093EB001092EC0082E38093ED0092
:101D000010923D0288E08093F000C2FF1BC083E088
:101D10000E94890180913102882341F08091310233
:101D2000815080933102811101C05D9A80913C0203
:101D3000882341F080913C02815080933C028111C4
:101D400001C0289AC4FF23C08091E2008E7E81608A
:101D50008093E2008091E1008F7E8093E10080918A
:101D600032028E7E806180933202FF91EF91CF919B
:101D7000BF91AF919F918F917F916F915F914F91A3
:101D80003F912F910F900FBE0F901F901895C0FF9D
:101D9000ECCF8091E2008E7E80618093E2008091A2
:101DA000E1008E7E8093E100809132028E7E816020
:101DB000DACF1F920F920FB60F921124CF92DF92BB
:101DC000EF92FF920F931F932F933F934F935F9345
:101DD0006F937F938F939F93AF93BF93EF93FF93F3
:101DE000CF93DF93CDB7DEB76C97DEBFCDBF109238
:101DF000E9008091E80083FF25C068E0CE014596A8
:101E00000E94C10282EF8093E8008D8987FF39C06C
:101E10009091E80090FFFCCF982F907609F034C1A4
:101E20009E894F89588D2F89F88C911131C0803847
:101E300061F5809133028093F1001092F1008EEFF2
:101E40008093E8006C960FB6F894DEBF0FBECDBF4E
:101E5000DF91CF91FF91EF91BF91AF919F918F91C2
:101E60007F916F915F914F913F912F911F910F91B2
:101E7000FF90EF90DF90CF900F900FBE0F901F90CC
:101E800018959EEF9093E800C7CF1092F100D5CF40
:101E9000913059F48111D3CF4130510581F68091B1
:101EA00033028D7F80933302CACF933049F481117E
:101EB000C6CF4130510519F6809133028260F2CFCE
:101EC000953041F48091E80080FFFCCF206820939A
:101ED000E300B5CF963009F0A9C00B8D1C8D22E030
:101EE0001092E90010922F0210922E02F2122EC0D0
:101EF00010922D0210922C020E94E2021F8299E0A1
:101F00009983FA8291E09E8390EA98879AEF998765
:101F100020912E0230912F02275F3F4F3C832B836D
:101F20008D831092E90010922F0210922E021093CE
:101F30002D0200932C0249E050E0BE016F5F7F4FFD
:101F400080E00E94F4010E94E20279CF10932D02FA
:101F500000932C020E94CE02DC0112960D911C917E
:101F60000115110509F451C1D801ED91FC910480CE
:101F7000F581E02DBE016B5E7F4FC801099500978A
:101F800009F03EC1F80100851185EACFF3E0FF12A8
:101F90000EC08F89882309F440C0823061F440E884
:101FA00060E180E491E00E94C101811148CF81E2AB
:101FB0008093EB0047CF813029F440E86BE084E365
:101FC00091E0F1CF833099F70E94CE02DC011296A6
:101FD000ED90FC908E010F5F1F4F6801E114F1043A
:101FE00079F0D701ED91FC910680F781E02DB801E1
:101FF000C7010995080F111DF701E084F184EECFA8
:10200000D8011C92F60101900020E9F73197BF0139
:102010006C197D0940E0C601C6CF6EE171E0FB019D
:10202000449150E080E80E94F40109CF973009F410
:10203000BECF983021F481E08093F10000CF993039
:1020400009F0FDCE837009F0B2CFE1E0F1E081E06C
:1020500031E096E32191222371F08093E9003093DF
:10206000EB00DF0111972C912093EC009093ED0091
:102070008F5F873079F78EE78093EA001092EA004D
:102080008F8980933D02DBCE8B8D9C8D1092E90071
:1020900010922F0210922E0290932D0280932C0208
:1020A000898D811192C08E899D89913A49F481323E
:1020B00009F07DCF47E050E06BE071E080E0B3CF06
:1020C000913209F074CF833269F48F89988DB0E032
:1020D000A0E08093070190930801A0930901B093B9
:1020E0000A01ADCE803269F48091E80082FFFCCF16
:1020F00067E08BE091E00E94C1028BEF8093E800E3
:102100009ECE823209F09BCE8F8980931201EEEF32
:10211000FFE7859194918B3F9C4D51F1E0E0F8E011
:1021200080910B0190910C01A0910D01B0910E01D5
:10213000803B9440A105B105F1F48091120180FD2E
:102140001AC0EE3F8AE0F80789F587E797E79183A1
:102150008083809160008093300288E19BE00FB61D
:10216000F894A895809360000FBE9093600067CEAE
:10217000EEEFFAE0D5CF808191818737974709F05C
:102180005ECEA89580916000886180936000809108
:10219000300280936000EE3F2AE0F20789F08091E0
:1021A000FE0A9091FF0A9183808349CE80819181BC
:1021B0008737980751F29093FF0A8093FE0AC5CFA4
:1021C0001092FF0A1092FE0A3ACE0E94CE02DC0163
:1021D00012960D911C910115110509F4E8CED80154
:1021E000ED91FC910190F081E02DBE016B5E7F4F7F
:1021F000C8010995811123CEF80100851185EBCF27
:10220000181619060CF41BCED2CEF1E0FF12BECE8A
:1022100062E271E004CFCF93DF93FC01DB018181A7
:1022200014963C911497682F630F7727771F6830B7
:1022300071059CF5C281D381209739F5B383A283C0
:10224000908112969C93129713968C9313971596E0
:102250008C911597890F808390E080E0831708F5B3
:102260002181C22FD0E0BE0160507F4F16964D9164
:102270005C911797480F591FEA014881EB01488389
:102280002F5F21830196EACFEA01488559854115E0
:102290005105D1F7B987A887D3CF80E0DF91CF91DF
:1022A000089581E0FBCFE2E4F2E01382128288EE2F
:1022B00093E0A0E0B0E084839583A683B7838FE2A8
:1022C00091E0918380838FEF9FEF95878487E2E988
:1022D000F2E082E0848385838CE992E097838683B1
:1022E0001186108681E491E09183808380E8828763
:1022F00081E883870E94CE0262E972E00E940B119E
:10230000EEE9F2E081E0848385838EEA92E09783B0
:102310008683118610868DE491E09183808380E826
:1023200091E0938782878CE891E09587848782E9A2
:1023300091E0978786870E94CE026EE972E00C9446
:102340000B11CF93DF93CDB7DEB7C159D1090FB6CB
:10235000F894DEBF0FBECDBF789484B5826084BD93
:1023600084B5816084BD85B5826085BD85B5816099
:1023700085BD80916E00816080936E001092810017
:1023800080918100826080938100809181008160D2
:102390008093810080918000816080938000809193
:1023A0009100826080939100809191008160809380
:1023B0009100809190008160809390008091C10095
:1023C00084608093C1008091C10082608093C100CD
:1023D0008091C10081608093C1008091C3008160C1
:1023E0008093C3008091C00082608093C000809180
:1023F000C20081608093C20080917A0084608093E3
:102400007A0080917A00826080937A0080917A00CD
:10241000816080937A0080917A00806880937A004E
:1024200010923D0210923302109232028091D70036
:1024300081608093D70080EA8093D80089B580615D
:1024400089BD89B5826089BD09B400FEFDCF0E94B7
:1024500071018091D8008F7C80618093D800809139
:10246000E000807F8093E0008091E1008E7E809389
:10247000E1008DE08093E200559A209AF5E1EF2E7D
:10248000F1E0FF2E10E000E0C8010E947E16181651
:102490000CF0EBC0D7018C930F5F1F4FFFEFEF1ACB
:1024A000FF0A0330110581F787E991E00E94D60900
:1024B000A8E2B1E08D9190E0FC01E457FE4F249139
:1024C00083599E4FFC0184918823C9F090E0880FC6
:1024D000991FFC01E15AFE4F45915491FC01EF5ABE
:1024E000FE4F659174919FB7F894FA018081209511
:1024F00082238083FB018081822380839FBFF1E060
:10250000AB32BF07B9F68FEF9FEF90934F028093E6
:102510004E0275E6272E312C2C0E3D1E25E0220E94
:10252000311C8E010F5F1F4F65E6462E512C4C0E5D
:102530005D1E3AE1430E511C82E492E00E94C90301
:10254000181619060CF015C183E191E0A7969FAF0C
:102550008EAFA797A8961FAEA897AA961FAE1EAEDD
:10256000AA97EC963FAE2EAEEC97ED961FAEED9788
:1025700084E0EE968FAFEE978FEFEF968FAFEF97E9
:10258000CD57DF4F1882C358D040CC57DF4F8883D8
:10259000C458D040CB57DF4F19821882C558D0405D
:1025A000C957DF4F19821882C758D040C757DF4F2D
:1025B00019821882C958D04070E060E0CE018B5774
:1025C0009F4F0E94040BCB57DF4F28813981C5589C
:1025D000D04081114FC02115310519F0C9010E9469
:1025E000FC17CB57DF4F19821882C558D040C75708
:1025F000DF4F19821882C958D040C957DF4F19825E
:102600001882C758D0400E946503C757DF4FE88043
:10261000F980C958D04097FD39C08A309105B1F191
:1026200089831A829FEFE91AF90AB701CE018B5705
:102630009F4F0E94040B882331F3CB57DF4F288133
:102640003981C558D040C757DF4F88819981C95813
:10265000D040B801820F931F0E944B19C757DF4F1C
:10266000F982E882C958D040CECF81E0800FF701CF
:10267000808312CFC757DF4F19821882C958D040C4
:1026800067E671E0C9010E944B19BDCFCB57DF4F00
:10269000C880D980C558D040A7966EAD7FADA797AA
:1026A000C1010E94C605A8961FAEA897A796AEAC1A
:1026B000BFACA797AA968EAD9FADAA97009759F089
:1026C000DC012D913C91AA963FAF2EAFAA97B501A0
:1026D0000E948607EFCFCD57DF4F1882C358D040F6
:1026E000E5E6F0E0EC0FFD1FFA83E9831C821B8214
:1026F0001E821D821F82D986C886EC0CFD1CFB86BB
:10270000EA861D86FF87EE874AE0B201C8010E9473
:10271000D70B7C01892B69F48C85882351F0CD5728
:10272000DF4F8881C358D04083FF03C053E0E52EBC
:10273000F12C8B819C81009731F0E981FA816081D5
:1027400071810E948607EF2809F4AFC084EB91E005
:102750000E94D609CB57DF4F88819981C558D04058
:10276000009711F00E94FC17CE018B599F4F0E94D9
:10277000F80784E3C82E82E0D82E28E231E0C05763
:10278000DF4F39832883C059D040F12CE12C9BE0E6
:10279000A92EC057DF4FA881B981C059D040ED9113
:1027A000C057DF4FB983A883C059D040E23108F049
:1027B000E251F0E0E555FE4FE49190917B008E2FC1
:1027C000880F880F80729F7D892B80937B00E77034
:1027D000E064E0937C0080917A00806480937A00CA
:1027E00080917A0086FDFCCF60907800709079002F
:1027F0009301AFE7B0E00E9417172FEF33E040E0FE
:1028000050E00E949416B22E822E912CF6018191F6
:102810006F01FFEFEF1AFF0A9401281B3109C9016C
:1028200037FF03C091958195910902978CF1F701CB
:10283000EC5EFE4F9080A98230EB3A839B82BC8293
:102840008091950244E050E0B8018F5F0E942B0216
:10285000809195028F5F0E9489011F929F921F9223
:102860008F927F926F92FF92EF9288EF91E09F9309
:102870008F931F930F930E945219C8010E94D6098B
:10288000F6013197B0820FB6F894DEBF0FBECDBF10
:10289000F3E0EF16F10409F07CCF80E090E0892BA3
:1028A00009F44ACE0E9400003CCEF12CE12C39EC18
:1028B000C32E31E0D32E42E0742E25E630E02C0FFB
:1028C0003D1F3B832A83DD82CC827E828F8180788C
:1028D00080688F83F986E886C8010E949B0AFC0104
:1028E000892B31F084818A3031F18C3009F443C076
:1028F000BFEFEB1AFB0AE3E0EE16F104F1F625E177
:10290000E22E21E0F22ED12CC12CD701BD907D0109
:10291000C6010E947E16B81621F06B2DC6010E94DA
:102920008616BFEFCB1ADB0AE3E0CE16D10469F7B7
:102930008EED91E00DCF80819181A281B3818115CF
:102940009048A105B105A0F625E630E02C0F3D1F0B
:102950003B832A83DD82CC827E828F81807880686F
:102960008F83F986E886C8010E949B0AFC01892BA7
:1029700079F4812C2DC080819181A281B3819058FE
:10298000AF4FBF4F0097A140B10508F0B1CFDCCFEA
:1029900084818630E1F040F4843079F1853049F764
:1029A0008081918104962BC08C30D9F08E3009F44F
:1029B00051C08A30F1F680809180A280B3803FEFD1
:1029C00083169104A104B10409F098F601C0808037
:1029D000F701EB5EFE4F80828CEC91E00E94D609FD
:1029E00087CF80809180A280B3808FEF881691047A
:1029F000A104B10469F360F3BCCF808191810E948E
:102A00000B06C557DF4F2883CB58D040C457DF4F44
:102A10003883CC58D040C357DF4F4883CD58D0407F
:102A2000C257DF4F5883CE58D040C157DF4F68831D
:102A3000CF58D040C457DF4F88809980AA80BB8090
:102A4000CC58D040223021F1233059F1213009F007
:102A500090CF04C080809180A280B38020E030E0DD
:102A6000A901C501B4010E94551787FD82CF20E05E
:102A700030E04FE753E4C501B4010E945A1518161F
:102A80000CF477CFC501B4010E942617862EA0CF83
:102A90009FEF89169104A104B10409F008F498CFBE
:102AA00068CFAFEF8A169104A104B10409F008F4CD
:102AB0008FCF5FCF0E949C1508F481E00895E894C1
:102AC00009C097FB3EF490958095709561957F4F76
:102AD0008F4F9F4F9923A9F0F92F96E9BB27939524
:102AE000F695879577956795B795F111F8CFFAF434
:102AF000BB0F11F460FF1BC06F5F7F4F8F4F9F4F65
:102B000016C0882311F096E911C0772321F09EE8C2
:102B1000872F762F05C0662371F096E8862F70E028
:102B200060E02AF09A95660F771F881FDAF7880F02
:102B30009695879597F90895990F0008550FAA0B58
:102B4000E0E8FEEF16161706E807F907C0F01216C0
:102B50001306E407F50798F0621B730B840B950BC3
:102B600039F40A2661F0232B242B252B21F4089518
:102B70000A2609F4A140A6958FEF811D811D0895B5
:102B80000E94D3150C9444160E94361638F00E9409
:102B90003D1620F0952311F00C942D160C9433164D
:102BA00011240C9478160E94551670F3959FC1F36A
:102BB000950F50E0551F629FF001729FBB27F00DEB
:102BC000B11D639FAA27F00DB11DAA1F649F662740
:102BD000B00DA11D661F829F2227B00DA11D621F8F
:102BE000739FB00DA11D621F839FA00D611D221F49
:102BF000749F3327A00D611D231F849F600D211D2D
:102C0000822F762F6A2F11249F5750409AF0F1F0AF
:102C100088234AF0EE0FFF1FBB1F661F771F881F18
:102C200091505040A9F79E3F510580F00C942D160D
:102C30000C9478165F3FE4F3983ED4F3869577952D
:102C40006795B795F795E7959F5FC1F7FE2B880FBE
:102C5000911D9695879597F9089597F99F6780E854
:102C600070E060E008959FEF80EC089500240A94DE
:102C70001616170618060906089500240A94121657
:102C80001306140605060895092E0394000C11F48A
:102C9000882352F0BB0F40F4BF2B11F460FF04C037
:102CA0006F5F7F4F8F4F9F4F089557FD9058440F90
:102CB000551F59F05F3F71F04795880F97FB991F9B
:102CC00061F09F3F79F08795089512161306140658
:102CD000551FF2CF4695F1DF08C0161617061806E5
:102CE000991FF1CF86957105610508940895E894C0
:102CF000BB2766277727CB0197F90895F999FECF6F
:102D000092BD81BDF89A992780B50895262FF9992B
:102D1000FECF1FBA92BD81BD20BD0FB6F894FA9ABE
:102D2000F99A0FBE01960895052E97FB1EF40094A4
:102D30000E94AB1657FD07D00E94F51607FC03D082
:102D40004EF40C94AB1650954095309521953F4F1D
:102D50004F4F5F4F089590958095709561957F4F87
:102D60008F4F9F4F08950E941717A59F900DB49FF6
:102D7000900DA49F800D911D112408952F923F92D4
:102D80004F925F926F927F928F929F92AF92BF927B
:102D9000CF92DF92EF92FF920F931F93CF93DF9327
:102DA000CDB7DEB7CA1BDB0B0FB6F894DEBF0FBE84
:102DB000CDBF09942A88398848885F846E847D84D1
:102DC0008C849B84AA84B984C884DF80EE80FD80D3
:102DD0000C811B81AA81B981CE0FD11D0FB6F89449
:102DE000DEBF0FBECDBFED010895A1E21A2EAA1BD2
:102DF000BB1BFD010DC0AA1FBB1FEE1FFF1FA217AB
:102E0000B307E407F50720F0A21BB30BE40BF50BA7
:102E1000661F771F881F991F1A9469F76095709530
:102E2000809590959B01AC01BD01CF010895A29FB3
:102E3000B001B39FC001A39F700D811D1124911D8E
:102E4000B29F700D811D1124911D08950E945D1681
:102E500088F09F5798F0B92F9927B751B0F0E1F05B
:102E6000660F771F881F991F1AF0BA95C9F714C00B
:102E7000B13091F00E947716B1E008950C94771666
:102E8000672F782F8827B85F39F0B93FCCF3869544
:102E900077956795B395D9F73EF4909580957095A1
:102EA00061957F4F8F4F9F4F08950E949C1508F4A6
:102EB0008FEF0895EE0FFF1F0590F491E02D099418
:102EC0000F931F93CF93DF938230910510F482E02C
:102ED00090E0E091B002F091B10230E020E0B0E08B
:102EE000A0E0309799F42115310509F44AC0281B58
:102EF000390B24303105D8F58A819B816115710524
:102F000089F1FB0193838283FE0111C040815181CD
:102F10000281138148175907E0F04817590799F4BF
:102F2000109761F012960C93129713961C93329699
:102F3000CF01DF91CF911F910F9108950093B002BF
:102F40001093B102F4CF2115310551F04217530708
:102F500038F0A901DB019A01BD01DF01F801C1CF01
:102F6000EF01F9CF9093B1028093B002CDCFFE0173
:102F7000E20FF31F81939193225031093983288303
:102F8000D7CF2091AE023091AF02232B41F4209194
:102F90001A0130911B013093AF022093AE022091B1
:102FA0001801309119012115310541F42DB73EB7B3
:102FB00040911C0150911D01241B350BE091AE0284
:102FC000F091AF02E217F307A0F42E1B3F0B281776
:102FD000390778F0AC014E5F5F4F2417350748F092
:102FE0004E0F5F1F5093AF024093AE0281939193B7
:102FF0009FCFF0E0E0E09CCFCF93DF930097E9F024
:10300000FC01329713821282A091B002B091B102FA
:10301000ED0130E020E01097A1F420813181820F92
:10302000931F2091AE023091AF022817390709F0A3
:1030300061C0F093AF02E093AE02DF91CF910895AB
:10304000EA01CE17DF07E8F54A815B819E01411551
:103050005105B1F7E901FB83EA8349915991C40F06
:10306000D51FEC17FD0761F4808191810296840FD2
:10307000951FE90199838883828193819B838A8349
:10308000F0E0E0E012968D919C9113970097B9F5CE
:103090002D913C911197CD010296820F931F2091A3
:1030A000AE023091AF022817390739F6309751F543
:1030B0001092B1021092B002B093AF02A093AE0290
:1030C000BCCFD383C28340815181840F951FC81721
:1030D000D90761F44E5F5F4F88819981480F591F6E
:1030E000518340838A819B8193838283211531059B
:1030F00009F0B0CFF093B102E093B0029ECFFD0192
:10310000DC01C0CF13821282D7CFB0E0A0E0EBE8A1
:10311000F8E10C94C0168C01009751F4CB010E9489
:1031200060178C01C801CDB7DEB7E0E10C94DC1666
:10313000FC01E60FF71F9C0122503109E217F3074B
:1031400008F49DC0D901CD91DC911197C617D7071E
:1031500098F0C530D10530F3CE0104978617970754
:1031600008F3C61BD70B2297C193D1936D937C9321
:10317000CF010E94FC17D6CF5B01AC1ABD0A4C01EF
:103180008C0E9D1EA091B002B091B102512C412C29
:10319000F12CE12C109731F58091AE029091AF02A5
:1031A0008815990509F05CC04616570608F058C006
:1031B0008091180190911901009741F48DB79EB745
:1031C00040911C0150911D01841B950BE817F907D4
:1031D00008F055C0F093AF02E093AE02F90171839D
:1031E0006083A0CF8D919C91119712966C9012974D
:1031F00013967C901397A815B90559F56C0142E018
:10320000C40ED11CCA14DB0420F1AC014A195B09BD
:10321000DA011296159780F062827382518340839F
:10322000D9016D937C93E114F10471F0D7011396E9
:10323000FC93EE93129776CF22968C0F9D1FF90187
:1032400091838083F301EFCFF093B102E093B0025A
:1032500069CF4816590608F42C017D01D3019ACF95
:10326000CB010E9460177C01009749F0AE01B801C4
:103270000E944219C8010E94FC17870153CF10E039
:1032800000E050CFFB01DC0102C001900D924150E3
:103290005040D8F70895FB01DC0101900D92002009
:1032A000E1F70895AEE0B0E0E8E5F9E10C94CC1662
:1032B0000D891E8986E08C831A8309838FEF9FE72F
:1032C0009E838D83AE01475E5F4F6F89788DCE01FF
:1032D00001960E9475192F813885020F131FF8017E
:1032E00010822E96E4E00C94E816ABE0B0E0EBE739
:1032F000F9E10C94BE167C013B018A01FC011782A6
:103300001682838181FFC8C1CE0101965C01F7015D
:103310009381F30193FD859193FF81913F01882370
:1033200009F453C1853239F493FD859193FF81915E
:103330003F01853229F4B70190E00E94651BE7CF79
:10334000912C212C312CFFE1F31538F08B3211F147
:1033500090F4803209F1833229F137FC3CC020ED32
:10336000280F2A3050F536FE20C08AE0989E200DA6
:103370001124922E06C08D3291F0803371F768943B
:1033800030F8F30193FD859193FF81913F01811105
:10339000DACF21C0689431F8689432F8F2CF68949B
:1033A00033F8EFCF689434F8ECCFEAE02E9E200D8E
:1033B0001124222E689435F8E4CF8E3229F436FC9D
:1033C00004C1689436F8DDCF8C3619F4689437F868
:1033D000D8CF8836B1F2982F9F7D95549330E0F086
:1033E0008336A1F18337C1F1833509F063C0280129
:1033F000F2E04F0E511CF801C080D180692D70E0C1
:1034000036FC02C06FEF7FEFC6010E944F1B4C01DC
:10341000689437F882010AC00C5F1F4FFFE3F983FD
:1034200088248394912C6501E89437F833FE2DC0ED
:10343000522C8114910471F5552009F468CFB7011D
:1034400080E290E00E94651B5A94F6CFF8018081DB
:1034500089830E5F1F4FE4CF2801F2E04F0E511C0D
:10346000F801C080D180692D70E036FC02C06FEF9A
:103470007FEFC6010E945A1B4C018201D5CFB701D4
:1034800080E290E00E94651B2A942814190409F038
:10349000B0F7CECFF60137FC859137FE81916F01F1
:1034A000B70190E00E94651B51105A94F1E08F1A09
:1034B0009108BFCF843619F0893609F077C0F8013A
:1034C00037FE6BC060817181828193810C5F1F4FD9
:1034D000F32DFF763F2E97FF09C09095809570954C
:1034E00061957F4F8F4F9F4F689437F82AE030E007
:1034F000A5010E94951BC82ECA188C2C432C36FEA1
:103500000CC0E89440F8C91440F434FE05C032FC05
:1035100003C0F32DFE7E4F2E892C44FE95C0FE0184
:10352000EC0DF11D8081803309F087C0242D297EA8
:10353000422E842D8870582E43FC95C040FE8FC0CB
:103540009C2C821418F42C0C922C981844FE91C0D8
:10355000B70180E390E00E94651B42FE09C088E746
:1035600090E041FE02C088E590E0B7010E94651B33
:10357000C91408F48AC0CA94D12C9FEFC91AD90A79
:10358000CA0CDB1CF60182916F01B70190E00E942A
:10359000651BAC14BD04B1F74FCF60817181072E5C
:1035A000000C880B990B0E5F1F4F92CFD32CE89421
:1035B000D4F82AE030E0853739F1232D297FD22E47
:1035C0008F3601F148F48835A9F0F701868197819B
:1035D0002B96E2E10C94DA16803749F08837A9F788
:1035E000D4FE02C06894D2F820E130E00DC06894A7
:1035F000D4F8F6CF34FE03C0822F8660D82E20E1A7
:1036000032E002C028E030E0F801D7FE0FC0608150
:103610007181828193810C5F1F4FA5010E94951BD0
:10362000C82ECA183D2CE89437F867CF60817181A5
:1036300090E080E00E5F1F4FF0CF42FC02C0839409
:1036400078CF8394839475CF842D867809F471CFD5
:10365000F6CFB70180E290E00E94651B839482144C
:10366000C0F3512C73CF522C5818821408F46ECF2B
:10367000F8CF842D867809F47BCF8BE241FE80E27F
:1036800047FC8DE2B70190E071CFB70180E390E095
:103690000E94651B9A946CCF8FEF9FEF99CFFC012E
:1036A0000590615070400110D8F7809590958E0F6D
:1036B0009F1F0895FC016150704001900110D8F7E0
:1036C000809590958E0F9F1F08950F931F93CF9312
:1036D000DF93182F092FEB018B8181FD09C01FEFAC
:1036E0000FEF812F902FDF91CF911F910F910895B0
:1036F00082FF14C02E813F818C819D81281739075C
:103700003CF4E881F981CF01019699838883108385
:103710008E819F8101969F838E83E3CFE885F98513
:10372000812F0995892BA1F3DACFFA01AA27283036
:1037300051F1203181F1E8946F936E7F6E5F7F4F7E
:103740008F4F9F4FAF4FB1E03ED0B4E03CD0670FFA
:10375000781F891F9A1FA11D680F791F8A1F911D4D
:10376000A11D6A0F711D811D911DA11D20D009F49D
:1037700068943F912AE0269F11243019305D3193DF
:10378000DEF6CF010895462F4770405D4193B3E0C8
:103790000FD0C9F7F6CF462F4F70405D4A3318F06F
:1037A000495D31FD4052419302D0A9F7EACFB4E020
:1037B000A6959795879577956795BA95C9F70097D8
:1037C0006105710508959B01AC010A2E0694579579
:1037D000479537952795BA95C9F7620F731F841FD0
:0A37E000951FA01D0895F894FFCF77
:1037EA0000C18081000000FFFFFFFF00E100000030
:1037FA0000000022010102030000B2028000000062
:10380A0000000E0E010B2C0B1C1B1A0000000029D5
:10381A0003130342033F03C9034703A50300000040
:10382A0000E603E803E303300B00000000E603E3CD
:10383A0003F309F7042F2F272722225C5C6208660C
:10384A000C6E0A720D7409000D0A004D49444900B4
:10385A00747275650066616C7365006E756C6C00D8
:10386A004E656F417263684361743700582E552E56
:10387A004C00303030310043432076616C756573FB
:10388A00206C6F616465642066726F6D20454550D7
:10389A00524F4D004661696C656420746F207061F7
:1038AA00727365204A534F4E00636300557064611A
:1038BA007465642043432076616C756573004343E5
:1038CA002076616C75657320736176656420746F08
:1038DA0020454550524F4D0046616465722025646B
:1038EA003A20526177203D2025642C204D494449D5
:1038FA00203D2025642C204343203D2025640000E0
:00000001FF
